{
  "_format": "hh-sol-artifact-1",
  "contractName": "TimelockOwned",
  "sourceName": "contracts/general/TimelockOwned.sol",
  "abi": [
    {
      "anonymous": false,
      "inputs": [
        {
          "indexed": true,
          "internalType": "address",
          "name": "previousOwner",
          "type": "address"
        },
        {
          "indexed": true,
          "internalType": "address",
          "name": "newOwner",
          "type": "address"
        }
      ],
      "name": "OwnershipTransferred",
      "type": "event"
    },
    {
      "inputs": [
        {
          "internalType": "uint256",
          "name": "_id",
          "type": "uint256"
        }
      ],
      "name": "implementProposal",
      "outputs": [],
      "stateMutability": "nonpayable",
      "type": "function"
    },
    {
      "inputs": [],
      "name": "isOwner",
      "outputs": [
        {
          "internalType": "bool",
          "name": "",
          "type": "bool"
        }
      ],
      "stateMutability": "view",
      "type": "function"
    },
    {
      "inputs": [],
      "name": "owner",
      "outputs": [
        {
          "internalType": "address",
          "name": "",
          "type": "address"
        }
      ],
      "stateMutability": "view",
      "type": "function"
    },
    {
      "inputs": [],
      "name": "renounceOwnership",
      "outputs": [],
      "stateMutability": "nonpayable",
      "type": "function"
    },
    {
      "inputs": [
        {
          "internalType": "address",
          "name": "_target",
          "type": "address"
        },
        {
          "internalType": "bytes",
          "name": "_data",
          "type": "bytes"
        }
      ],
      "name": "submitProposal",
      "outputs": [],
      "stateMutability": "nonpayable",
      "type": "function"
    },
    {
      "inputs": [
        {
          "internalType": "address",
          "name": "newOwner",
          "type": "address"
        }
      ],
      "name": "transferOwnership",
      "outputs": [],
      "stateMutability": "nonpayable",
      "type": "function"
    }
  ],
  "bytecode": "0x60806040526202a30060025534801561001757600080fd5b50600080546001600160a01b03191633178082556040516001600160a01b039190911691907f8be0079c531659141344cd1fd0a4f28419497f9722a3daafe3b4186f6b6457e0908290a361080c806100706000396000f3fe608060405234801561001057600080fd5b50600436106100625760003560e01c8063715018a6146100675780638da5cb5b146100715780638f32d59b14610095578063973a55da146100b1578063ec3181be146100ce578063f2fde38b1461014e575b600080fd5b61006f610174565b005b610079610211565b604080516001600160a01b039092168252519081900360200190f35b61009d610220565b604080519115158252519081900360200190f35b61006f600480360360208110156100c757600080fd5b5035610231565b61006f600480360360408110156100e457600080fd5b6001600160a01b03823516919081019060408101602082013564010000000081111561010f57600080fd5b82018360208201111561012157600080fd5b8035906020019184600183028401116401000000008311171561014357600080fd5b5090925090506103eb565b61006f6004803603602081101561016457600080fd5b50356001600160a01b0316610562565b61017c610220565b6101c7576040805162461bcd60e51b815260206004820152601760248201527636b9b39739b2b73232b91034b9903737ba1037bbb732b960491b604482015290519081900360640190fd5b600080546040516001600160a01b03909116907f8be0079c531659141344cd1fd0a4f28419497f9722a3daafe3b4186f6b6457e0908390a3600080546001600160a01b0319169055565b6000546001600160a01b031690565b6000546001600160a01b0316331490565b610239610220565b610284576040805162461bcd60e51b815260206004820152601760248201527636b9b39739b2b73232b91034b9903737ba1037bbb732b960491b604482015290519081900360640190fd5b61028c6106d9565b600082815260036020908152604091829020825160808101845281546001600160801b038082168352600160801b90910416818401526001808301546001600160a01b0316828601526002808401805487516101009482161594909402600019011691909104601f8101869004860283018601909652858252919492936060860193919291908301828280156103635780601f1061033857610100808354040283529160200191610363565b820191906000526020600020905b81548152906001019060200180831161034657829003601f168201915b505050505081525050905080602001516001600160801b031660001415801561039957504281602001516001600160801b031611155b6103a257600080fd5b6103b4816040015182606001516105c1565b60008281526003602052604081208181556001810180546001600160a01b0319169055906103e560028301826106ff565b50505050565b6103f3610220565b61043e576040805162461bcd60e51b815260206004820152601760248201527636b9b39739b2b73232b91034b9903737ba1037bbb732b960491b604482015290519081900360640190fd5b600180548101905561044e6106d9565b60405180608001604052806001546001600160801b0316815260200160025442016001600160801b03168152602001856001600160a01b0316815260200184848080601f01602080910402602001604051908101604052809392919081815260200183838082843760009201829052509390945250506001805482526003602090815260409283902085518154838801516001600160801b03908116600160801b029281166fffffffffffffffffffffffffffffffff1990921691909117161781559285015191830180546001600160a01b039093166001600160a01b0319909316929092179091556060840151805194955085949293506105599260028501929190910190610743565b50505050505050565b61056a610220565b6105b5576040805162461bcd60e51b815260206004820152601760248201527636b9b39739b2b73232b91034b9903737ba1037bbb732b960491b604482015290519081900360640190fd5b6105be8161066b565b50565b816001600160a01b03166000826040518082805190602001908083835b602083106105fd5780518252601f1990920191602091820191016105de565b6001836020036101000a03801982511681845116808217855250505050505090500191505060006040518083038185875af1925050503d806000811461065f576040519150601f19603f3d011682016040523d82523d6000602084013e610664565b606091505b5050505050565b6001600160a01b03811661067e57600080fd5b600080546040516001600160a01b03808516939216917f8be0079c531659141344cd1fd0a4f28419497f9722a3daafe3b4186f6b6457e091a3600080546001600160a01b0319166001600160a01b0392909216919091179055565b604080516080810182526000808252602082018190529181019190915260608082015290565b50805460018160011615610100020316600290046000825580601f1061072557506105be565b601f0160209004906000526020600020908101906105be91906107c1565b828054600181600116156101000203166002900490600052602060002090601f016020900481019282601f1061078457805160ff19168380011785556107b1565b828001600101855582156107b1579182015b828111156107b1578251825591602001919060010190610796565b506107bd9291506107c1565b5090565b5b808211156107bd57600081556001016107c256fea2646970667358221220cabca7282b30d5847b1489cfaa916fec542e465c7b3e4b2763438dee78e2072064736f6c634300060c0033",
  "linkReferences": {},
  "deployedLinkReferences": {}
}