{
  "_format": "hh-sol-artifact-1",
  "contractName": "TimelockOwned",
  "sourceName": "contracts/general/TimelockOwned.sol",
  "abi": [
    {
      "anonymous": false,
      "inputs": [
        {
          "indexed": true,
          "internalType": "address",
          "name": "previousOwner",
          "type": "address"
        },
        {
          "indexed": true,
          "internalType": "address",
          "name": "newOwner",
          "type": "address"
        }
      ],
      "name": "OwnershipTransferred",
      "type": "event"
    },
    {
      "inputs": [
        {
          "internalType": "uint256",
          "name": "_id",
          "type": "uint256"
        }
      ],
      "name": "implementProposal",
      "outputs": [],
      "stateMutability": "nonpayable",
      "type": "function"
    },
    {
      "inputs": [],
      "name": "isOwner",
      "outputs": [
        {
          "internalType": "bool",
          "name": "",
          "type": "bool"
        }
      ],
      "stateMutability": "view",
      "type": "function"
    },
    {
      "inputs": [],
      "name": "owner",
      "outputs": [
        {
          "internalType": "address",
          "name": "",
          "type": "address"
        }
      ],
      "stateMutability": "view",
      "type": "function"
    },
    {
      "inputs": [],
      "name": "renounceOwnership",
      "outputs": [],
      "stateMutability": "nonpayable",
      "type": "function"
    },
    {
      "inputs": [
        {
          "internalType": "address",
          "name": "_target",
          "type": "address"
        },
        {
          "internalType": "bytes",
          "name": "_data",
          "type": "bytes"
        }
      ],
      "name": "submitProposal",
      "outputs": [],
      "stateMutability": "nonpayable",
      "type": "function"
    },
    {
      "inputs": [
        {
          "internalType": "address",
          "name": "newOwner",
          "type": "address"
        }
      ],
      "name": "transferOwnership",
      "outputs": [],
      "stateMutability": "nonpayable",
      "type": "function"
    }
  ],
  "bytecode": "0x60806040526202a30060025534801561001757600080fd5b50336000806101000a81548173ffffffffffffffffffffffffffffffffffffffff021916908373ffffffffffffffffffffffffffffffffffffffff16021790555060008054906101000a900473ffffffffffffffffffffffffffffffffffffffff1673ffffffffffffffffffffffffffffffffffffffff16600073ffffffffffffffffffffffffffffffffffffffff167f8be0079c531659141344cd1fd0a4f28419497f9722a3daafe3b4186f6b6457e060405160405180910390a3610c96806100e26000396000f3fe608060405234801561001057600080fd5b50600436106100625760003560e01c8063715018a6146100675780638da5cb5b146100715780638f32d59b146100a5578063973a55da146100c5578063ec3181be146100f3578063f2fde38b1461018c575b600080fd5b61006f6101d0565b005b610079610308565b604051808273ffffffffffffffffffffffffffffffffffffffff16815260200191505060405180910390f35b6100ad610331565b60405180821515815260200191505060405180910390f35b6100f1600480360360208110156100db57600080fd5b8101908080359060200190929190505050610388565b005b61018a6004803603604081101561010957600080fd5b81019080803573ffffffffffffffffffffffffffffffffffffffff1690602001909291908035906020019064010000000081111561014657600080fd5b82018360208201111561015857600080fd5b8035906020019184600183028401116401000000008311171561017a57600080fd5b90919293919293905050506106a5565b005b6101ce600480360360208110156101a257600080fd5b81019080803573ffffffffffffffffffffffffffffffffffffffff1690602001909291905050506108e1565b005b6101d8610331565b61024a576040517f08c379a00000000000000000000000000000000000000000000000000000000081526004018080602001828103825260178152602001807f6d73672e73656e646572206973206e6f74206f776e657200000000000000000081525060200191505060405180910390fd5b600073ffffffffffffffffffffffffffffffffffffffff1660008054906101000a900473ffffffffffffffffffffffffffffffffffffffff1673ffffffffffffffffffffffffffffffffffffffff167f8be0079c531659141344cd1fd0a4f28419497f9722a3daafe3b4186f6b6457e060405160405180910390a360008060006101000a81548173ffffffffffffffffffffffffffffffffffffffff021916908373ffffffffffffffffffffffffffffffffffffffff160217905550565b60008060009054906101000a900473ffffffffffffffffffffffffffffffffffffffff16905090565b60008060009054906101000a900473ffffffffffffffffffffffffffffffffffffffff1673ffffffffffffffffffffffffffffffffffffffff163373ffffffffffffffffffffffffffffffffffffffff1614905090565b610390610331565b610402576040517f08c379a00000000000000000000000000000000000000000000000000000000081526004018080602001828103825260178152602001807f6d73672e73656e646572206973206e6f74206f776e657200000000000000000081525060200191505060405180910390fd5b61040a610b19565b600360008381526020019081526020016000206040518060800160405290816000820160009054906101000a90046fffffffffffffffffffffffffffffffff166fffffffffffffffffffffffffffffffff166fffffffffffffffffffffffffffffffff1681526020016000820160109054906101000a90046fffffffffffffffffffffffffffffffff166fffffffffffffffffffffffffffffffff166fffffffffffffffffffffffffffffffff1681526020016001820160009054906101000a900473ffffffffffffffffffffffffffffffffffffffff1673ffffffffffffffffffffffffffffffffffffffff1673ffffffffffffffffffffffffffffffffffffffff168152602001600282018054600181600116156101000203166002900480601f0160208091040260200160405190810160405280929190818152602001828054600181600116156101000203166002900480156105ab5780601f10610580576101008083540402835291602001916105ab565b820191906000526020600020905b81548152906001019060200180831161058e57829003601f168201915b5050505050815250509050600081602001516fffffffffffffffffffffffffffffffff16141580156105f357504281602001516fffffffffffffffffffffffffffffffff1611155b6105fc57600080fd5b61060e81604001518260600151610967565b60036000838152602001908152602001600020600080820160006101000a8154906fffffffffffffffffffffffffffffffff02191690556000820160106101000a8154906fffffffffffffffffffffffffffffffff02191690556001820160006101000a81549073ffffffffffffffffffffffffffffffffffffffff021916905560028201600061069f9190610b7b565b50505050565b6106ad610331565b61071f576040517f08c379a00000000000000000000000000000000000000000000000000000000081526004018080602001828103825260178152602001807f6d73672e73656e646572206973206e6f74206f776e657200000000000000000081525060200191505060405180910390fd5b600160008154809291906001019190505550610739610b19565b60405180608001604052806001546fffffffffffffffffffffffffffffffff16815260200160025442016fffffffffffffffffffffffffffffffff1681526020018573ffffffffffffffffffffffffffffffffffffffff16815260200184848080601f016020809104026020016040519081016040528093929190818152602001838380828437600081840152601f19601f8201169050808301925050505050505081525090508060036000600154815260200190815260200160002060008201518160000160006101000a8154816fffffffffffffffffffffffffffffffff02191690836fffffffffffffffffffffffffffffffff16021790555060208201518160000160106101000a8154816fffffffffffffffffffffffffffffffff02191690836fffffffffffffffffffffffffffffffff16021790555060408201518160010160006101000a81548173ffffffffffffffffffffffffffffffffffffffff021916908373ffffffffffffffffffffffffffffffffffffffff16021790555060608201518160020190805190602001906108d7929190610bc3565b5090505050505050565b6108e9610331565b61095b576040517f08c379a00000000000000000000000000000000000000000000000000000000081526004018080602001828103825260178152602001807f6d73672e73656e646572206973206e6f74206f776e657200000000000000000081525060200191505060405180910390fd5b61096481610a22565b50565b8173ffffffffffffffffffffffffffffffffffffffff166000826040518082805190602001908083835b602083106109b45780518252602082019150602081019050602083039250610991565b6001836020036101000a03801982511681845116808217855250505050505090500191505060006040518083038185875af1925050503d8060008114610a16576040519150601f19603f3d011682016040523d82523d6000602084013e610a1b565b606091505b5050505050565b600073ffffffffffffffffffffffffffffffffffffffff168173ffffffffffffffffffffffffffffffffffffffff161415610a5c57600080fd5b8073ffffffffffffffffffffffffffffffffffffffff1660008054906101000a900473ffffffffffffffffffffffffffffffffffffffff1673ffffffffffffffffffffffffffffffffffffffff167f8be0079c531659141344cd1fd0a4f28419497f9722a3daafe3b4186f6b6457e060405160405180910390a3806000806101000a81548173ffffffffffffffffffffffffffffffffffffffff021916908373ffffffffffffffffffffffffffffffffffffffff16021790555050565b604051806080016040528060006fffffffffffffffffffffffffffffffff16815260200160006fffffffffffffffffffffffffffffffff168152602001600073ffffffffffffffffffffffffffffffffffffffff168152602001606081525090565b50805460018160011615610100020316600290046000825580601f10610ba15750610bc0565b601f016020900490600052602060002090810190610bbf9190610c43565b5b50565b828054600181600116156101000203166002900490600052602060002090601f016020900481019282601f10610c0457805160ff1916838001178555610c32565b82800160010185558215610c32579182015b82811115610c31578251825591602001919060010190610c16565b5b509050610c3f9190610c43565b5090565b5b80821115610c5c576000816000905550600101610c44565b509056fea26469706673582212200ad8ea21ae3e03aa7ec92bb87364703fd16a0fb1d0cc9bb08399a66b76d4121664736f6c634300060c0033",
  "linkReferences": {},
  "deployedLinkReferences": {}
}