{
  "_format": "hh-sol-artifact-1",
  "contractName": "arNXMVault",
  "sourceName": "contracts/core/arNXMVault.sol",
  "abi": [
    {
      "inputs": [
        {
          "internalType": "address[]",
          "name": "_protocols",
          "type": "address[]"
        },
        {
          "internalType": "address",
          "name": "_wNXM",
          "type": "address"
        },
        {
          "internalType": "address",
          "name": "_arNXM",
          "type": "address"
        },
        {
          "internalType": "address",
          "name": "_nxmMaster",
          "type": "address"
        }
      ],
      "stateMutability": "nonpayable",
      "type": "constructor"
    },
    {
      "anonymous": false,
      "inputs": [
        {
          "indexed": true,
          "internalType": "address",
          "name": "previousOwner",
          "type": "address"
        },
        {
          "indexed": true,
          "internalType": "address",
          "name": "newOwner",
          "type": "address"
        }
      ],
      "name": "OwnershipTransferred",
      "type": "event"
    },
    {
      "inputs": [],
      "name": "adminPercent",
      "outputs": [
        {
          "internalType": "uint256",
          "name": "",
          "type": "uint256"
        }
      ],
      "stateMutability": "view",
      "type": "function"
    },
    {
      "inputs": [],
      "name": "arNXM",
      "outputs": [
        {
          "internalType": "contract IERC20",
          "name": "",
          "type": "address"
        }
      ],
      "stateMutability": "view",
      "type": "function"
    },
    {
      "inputs": [
        {
          "internalType": "uint256",
          "name": "_wAmount",
          "type": "uint256"
        }
      ],
      "name": "arNXMValue",
      "outputs": [
        {
          "internalType": "uint256",
          "name": "arAmount",
          "type": "uint256"
        }
      ],
      "stateMutability": "view",
      "type": "function"
    },
    {
      "inputs": [],
      "name": "beneficiary",
      "outputs": [
        {
          "internalType": "address",
          "name": "",
          "type": "address"
        }
      ],
      "stateMutability": "view",
      "type": "function"
    },
    {
      "inputs": [],
      "name": "bufferPercent",
      "outputs": [
        {
          "internalType": "uint256",
          "name": "",
          "type": "uint256"
        }
      ],
      "stateMutability": "view",
      "type": "function"
    },
    {
      "inputs": [
        {
          "internalType": "uint256",
          "name": "_adminPercent",
          "type": "uint256"
        }
      ],
      "name": "changeAdminPercent",
      "outputs": [],
      "stateMutability": "nonpayable",
      "type": "function"
    },
    {
      "inputs": [
        {
          "internalType": "uint256",
          "name": "_bufferPercent",
          "type": "uint256"
        }
      ],
      "name": "changeBufferPercent",
      "outputs": [],
      "stateMutability": "nonpayable",
      "type": "function"
    },
    {
      "inputs": [
        {
          "internalType": "uint256",
          "name": "_pauseDuration",
          "type": "uint256"
        }
      ],
      "name": "changePauseDuration",
      "outputs": [],
      "stateMutability": "nonpayable",
      "type": "function"
    },
    {
      "inputs": [
        {
          "internalType": "address[]",
          "name": "_protocols",
          "type": "address[]"
        }
      ],
      "name": "changeProtocols",
      "outputs": [],
      "stateMutability": "nonpayable",
      "type": "function"
    },
    {
      "inputs": [
        {
          "internalType": "uint256",
          "name": "_unstakePercent",
          "type": "uint256"
        }
      ],
      "name": "changeUnstakePercent",
      "outputs": [],
      "stateMutability": "nonpayable",
      "type": "function"
    },
    {
      "inputs": [
        {
          "internalType": "uint256",
          "name": "_wAmount",
          "type": "uint256"
        }
      ],
      "name": "deposit",
      "outputs": [],
      "stateMutability": "nonpayable",
      "type": "function"
    },
    {
      "inputs": [],
      "name": "isOwner",
      "outputs": [
        {
          "internalType": "bool",
          "name": "",
          "type": "bool"
        }
      ],
      "stateMutability": "view",
      "type": "function"
    },
    {
      "inputs": [],
      "name": "lastRestake",
      "outputs": [
        {
          "internalType": "uint256",
          "name": "",
          "type": "uint256"
        }
      ],
      "stateMutability": "view",
      "type": "function"
    },
    {
      "inputs": [],
      "name": "lastReward",
      "outputs": [
        {
          "internalType": "uint256",
          "name": "",
          "type": "uint256"
        }
      ],
      "stateMutability": "view",
      "type": "function"
    },
    {
      "inputs": [],
      "name": "nxmMaster",
      "outputs": [
        {
          "internalType": "contract INXMMaster",
          "name": "",
          "type": "address"
        }
      ],
      "stateMutability": "view",
      "type": "function"
    },
    {
      "inputs": [],
      "name": "owner",
      "outputs": [
        {
          "internalType": "address",
          "name": "",
          "type": "address"
        }
      ],
      "stateMutability": "view",
      "type": "function"
    },
    {
      "inputs": [],
      "name": "pauseDuration",
      "outputs": [
        {
          "internalType": "uint256",
          "name": "",
          "type": "uint256"
        }
      ],
      "stateMutability": "view",
      "type": "function"
    },
    {
      "inputs": [
        {
          "internalType": "uint256",
          "name": "_claimId",
          "type": "uint256"
        }
      ],
      "name": "pauseWithdrawals",
      "outputs": [],
      "stateMutability": "nonpayable",
      "type": "function"
    },
    {
      "inputs": [
        {
          "internalType": "uint256",
          "name": "",
          "type": "uint256"
        }
      ],
      "name": "protocols",
      "outputs": [
        {
          "internalType": "address",
          "name": "",
          "type": "address"
        }
      ],
      "stateMutability": "view",
      "type": "function"
    },
    {
      "inputs": [],
      "name": "renounceOwnership",
      "outputs": [],
      "stateMutability": "nonpayable",
      "type": "function"
    },
    {
      "inputs": [],
      "name": "restake",
      "outputs": [],
      "stateMutability": "nonpayable",
      "type": "function"
    },
    {
      "inputs": [
        {
          "internalType": "address",
          "name": "newOwner",
          "type": "address"
        }
      ],
      "name": "transferOwnership",
      "outputs": [],
      "stateMutability": "nonpayable",
      "type": "function"
    },
    {
      "inputs": [],
      "name": "unstakePercent",
      "outputs": [
        {
          "internalType": "uint256",
          "name": "",
          "type": "uint256"
        }
      ],
      "stateMutability": "view",
      "type": "function"
    },
    {
      "inputs": [],
      "name": "wNXM",
      "outputs": [
        {
          "internalType": "contract IERC20",
          "name": "",
          "type": "address"
        }
      ],
      "stateMutability": "view",
      "type": "function"
    },
    {
      "inputs": [
        {
          "internalType": "uint256",
          "name": "_arAmount",
          "type": "uint256"
        }
      ],
      "name": "wNXMValue",
      "outputs": [
        {
          "internalType": "uint256",
          "name": "wAmount",
          "type": "uint256"
        }
      ],
      "stateMutability": "view",
      "type": "function"
    },
    {
      "inputs": [
        {
          "internalType": "uint256",
          "name": "_arAmount",
          "type": "uint256"
        }
      ],
      "name": "withdraw",
      "outputs": [],
      "stateMutability": "nonpayable",
      "type": "function"
    },
    {
      "inputs": [],
      "name": "withdrawals",
      "outputs": [
        {
          "internalType": "uint256",
          "name": "",
          "type": "uint256"
        }
      ],
      "stateMutability": "view",
      "type": "function"
    },
    {
      "inputs": [],
      "name": "withdrawalsPaused",
      "outputs": [
        {
          "internalType": "uint256",
          "name": "",
          "type": "uint256"
        }
      ],
      "stateMutability": "view",
      "type": "function"
    }
  ],
  "bytecode": "0x60806040523480156200001157600080fd5b5060405162001d3938038062001d39833981810160405260808110156200003757600080fd5b81019080805160405193929190846401000000008211156200005857600080fd5b9083019060208201858111156200006e57600080fd5b82518660208202830111640100000000821117156200008c57600080fd5b82525081516020918201928201910280838360005b83811015620000bb578181015183820152602001620000a1565b50505050919091016040818152602084015190840151606090940151600080546001600160a01b0319163317808255929750949550936001600160a01b03919091169250907f8be0079c531659141344cd1fd0a4f28419497f9722a3daafe3b4186f6b6457e0908290a360005b84518110156200018757600a8582815181106200014157fe5b60209081029190910181015182546001808201855560009485529290932090920180546001600160a01b0319166001600160a01b03909316929092179091550162000128565b50600c80546001600160a01b039485166001600160a01b031991821617909155600d805493851693821693909317909255600e8054919093169116179055506101f4600555604660015560c860075562093a80600455611b4c80620001ed6000396000f3fe608060405234801561001057600080fd5b50600436106101c35760003560e01c80638da5cb5b116100f9578063c0dab51611610097578063e9f2838e11610071578063e9f2838e14610389578063ea2fafcc14610391578063ee0d1a3e14610401578063f2fde38b1461041e576101c3565b8063c0dab5161461035c578063c71859b814610364578063c9b1714914610381576101c3565b806394ff2fa8116100d357806394ff2fa8146103125780639d37b8db1461031a578063ade0e93e14610337578063b6b55f251461033f576101c3565b80638da5cb5b146102d15780638f32d59b146102d95780639465cc1f146102f5576101c3565b80634f91440d116101665780635fc987c1116101405780635fc987c11461029c5780636d29808e146102a4578063715018a6146102ac5780638c396220146102b4576101c3565b80634f91440d1461026f578063550934d6146102775780635c5d441714610294576101c3565b8063202a36cd116101a2578063202a36cd146102095780632e1a7d4d1461022657806330f6e4671461024357806338af3eed1461024b576101c3565b80627a2232146101c85780630526679c146101e75780631c01e6fc14610201575b600080fd5b6101e5600480360360208110156101de57600080fd5b5035610444565b005b6101ef61049e565b60408051918252519081900360200190f35b6101ef6104a4565b6101e56004803603602081101561021f57600080fd5b50356104aa565b6101e56004803603602081101561023c57600080fd5b50356105d0565b6101ef6106d6565b6102536106dc565b604080516001600160a01b039092168252519081900360200190f35b6101e56106eb565b6101ef6004803603602081101561028d57600080fd5b5035610765565b6101ef61094c565b610253610952565b610253610961565b6101e5610970565b610253600480360360208110156102ca57600080fd5b5035610a01565b610253610a28565b6102e1610a37565b604080519115158252519081900360200190f35b6101ef6004803603602081101561030b57600080fd5b5035610a48565b610253610bfe565b6101e56004803603602081101561033057600080fd5b5035610c0d565b6101ef610c59565b6101e56004803603602081101561035557600080fd5b5035610c5f565b6101ef610d03565b6101e56004803603602081101561037a57600080fd5b5035610d09565b6101ef610d64565b6101ef610d6a565b6101e5600480360360208110156103a757600080fd5b8101906020810181356401000000008111156103c257600080fd5b8201836020820111156103d457600080fd5b803590602001918460208302840111640100000000831117156103f657600080fd5b509092509050610d70565b6101e56004803603602081101561041757600080fd5b5035610dc8565b6101e56004803603602081101561043457600080fd5b50356001600160a01b0316610e14565b61044c610a37565b61048b576040805162461bcd60e51b81526020600482015260176024820152600080516020611af7833981519152604482015290519081900360640190fd5b606481111561049957600080fd5b600155565b60045481565b60085481565b60006104b4610e67565b90506000816001600160a01b03166336dbd2f9846040518263ffffffff1660e01b815260040180828152602001915050604080518083038186803b1580156104fb57600080fd5b505afa15801561050f573d6000803e3d6000fd5b505050506040513d604081101561052557600080fd5b5060209081015160408051630a9a1f1b60e31b81526004810187905290519193506000926001600160a01b038616926354d0f8d8926024808201939291829003018186803b15801561057657600080fd5b505afa15801561058a573d6000803e3d6000fd5b505050506040513d60208110156105a057600080fd5b50519050600e821480156105c0575062093a806105bd4283610ee7565b11155b156105ca57426003555b50505050565b6004546003546105e1904290610ee7565b1161061d5760405162461bcd60e51b8152600401808060200182810382526023815260200180611ad46023913960400191505060405180910390fd5b600061062882610765565b600d5460408051632770a7eb60e21b81523360048201526024810186905290519293506001600160a01b0390911691639dc29fac916044808201926020929091908290030181600087803b15801561067f57600080fd5b505af1158015610693573d6000803e3d6000fd5b505050506040513d60208110156106a957600080fd5b5050600c546106c2906001600160a01b03163383610f01565b6002546106cf9082610f53565b6002555050565b60015481565b6006546001600160a01b031681565b60085442906106fd9062093a80610f53565b111561073a5760405162461bcd60e51b815260040180806020018281038252602e815260200180611a7c602e913960400191505060405180910390fd5b610742610f6c565b61074a61105b565b610752611162565b61075a611363565b426008556000600255565b600080610770611553565b600c54604080516370a0823160e01b815230600482015290519293506000926001600160a01b03909216916370a0823191602480820192602092909190829003018186803b1580156107c157600080fd5b505afa1580156107d5573d6000803e3d6000fd5b505050506040513d60208110156107eb57600080fd5b5051604080516339ac5eb960e01b815230600482015290519192506000916001600160a01b038516916339ac5eb9916024808301926020929190829003018186803b15801561083957600080fd5b505afa15801561084d573d6000803e3d6000fd5b505050506040513d602081101561086357600080fd5b5051905060006108716115a2565b90506000610889826108838686610f53565b90610f53565b90506000600d60009054906101000a90046001600160a01b03166001600160a01b03166318160ddd6040518163ffffffff1660e01b815260040160206040518083038186803b1580156108db57600080fd5b505afa1580156108ef573d6000803e3d6000fd5b505050506040513d602081101561090557600080fd5b5051905060006109278261092185670de0b6b3a7640000611611565b90611638565b905061093f670de0b6b3a76400006109218b84611611565b9998505050505050505050565b60055481565b600e546001600160a01b031681565b600d546001600160a01b031681565b610978610a37565b6109b7576040805162461bcd60e51b81526020600482015260176024820152600080516020611af7833981519152604482015290519081900360640190fd5b600080546040516001600160a01b03909116907f8be0079c531659141344cd1fd0a4f28419497f9722a3daafe3b4186f6b6457e0908390a3600080546001600160a01b0319169055565b600a8181548110610a0e57fe5b6000918252602090912001546001600160a01b0316905081565b6000546001600160a01b031690565b6000546001600160a01b0316331490565b600080610a53611553565b600c54604080516370a0823160e01b815230600482015290519293506000926001600160a01b03909216916370a0823191602480820192602092909190829003018186803b158015610aa457600080fd5b505afa158015610ab8573d6000803e3d6000fd5b505050506040513d6020811015610ace57600080fd5b5051604080516339ac5eb960e01b815230600482015290519192506000916001600160a01b038516916339ac5eb9916024808301926020929190829003018186803b158015610b1c57600080fd5b505afa158015610b30573d6000803e3d6000fd5b505050506040513d6020811015610b4657600080fd5b505190506000610b546115a2565b90506000610b66826108838686610f53565b90506000600d60009054906101000a90046001600160a01b03166001600160a01b03166318160ddd6040518163ffffffff1660e01b815260040160206040518083038186803b158015610bb857600080fd5b505afa158015610bcc573d6000803e3d6000fd5b505050506040513d6020811015610be257600080fd5b5051905060006109278361092184670de0b6b3a7640000611611565b600c546001600160a01b031681565b610c15610a37565b610c54576040805162461bcd60e51b81526020600482015260176024820152600080516020611af7833981519152604482015290519081900360640190fd5b600455565b60025481565b6000610c6a82610a48565b600c54909150610c85906001600160a01b031633308561165a565b600d54604080516340c10f1960e01b81523360048201526024810184905290516001600160a01b03909216916340c10f19916044808201926020929091908290030181600087803b158015610cd957600080fd5b505af1158015610ced573d6000803e3d6000fd5b505050506040513d60208110156105ca57600080fd5b60075481565b610d11610a37565b610d50576040805162461bcd60e51b81526020600482015260176024820152600080516020611af7833981519152604482015290519081900360640190fd5b6103e8811115610d5f57600080fd5b600755565b60095481565b60035481565b610d78610a37565b610db7576040805162461bcd60e51b81526020600482015260176024820152600080516020611af7833981519152604482015290519081900360640190fd5b610dc3600a83836119c6565b505050565b610dd0610a37565b610e0f576040805162461bcd60e51b81526020600482015260176024820152600080516020611af7833981519152604482015290519081900360640190fd5b600555565b610e1c610a37565b610e5b576040805162461bcd60e51b81526020600482015260176024820152600080516020611af7833981519152604482015290519081900360640190fd5b610e64816116b4565b50565b600e54604080516227050b60e31b81526110d160f21b600482015290516000926001600160a01b0316916301382858916024808301926020929190829003018186803b158015610eb657600080fd5b505afa158015610eca573d6000803e3d6000fd5b505050506040513d6020811015610ee057600080fd5b5051919050565b600082821115610ef657600080fd5b508082035b92915050565b604080516001600160a01b038416602482015260448082018490528251808303909101815260649091019091526020810180516001600160e01b031663a9059cbb60e01b179052610dc3908490611722565b600082820183811015610f6557600080fd5b9392505050565b6000610f76611553565b90506000816001600160a01b031663afd369fd306040518263ffffffff1660e01b815260040180826001600160a01b0316815260200191505060206040518083038186803b158015610fc757600080fd5b505afa158015610fdb573d6000803e3d6000fd5b505050506040513d6020811015610ff157600080fd5b505160408051632e1a7d4d60e01b81526004810183905290519192506001600160a01b03841691632e1a7d4d9160248082019260009290919082900301818387803b15801561103f57600080fd5b505af1158015611053573d6000803e3d6000fd5b505050505050565b6000611065611553565b90506000816001600160a01b0316630ea474c7306040518263ffffffff1660e01b815260040180826001600160a01b0316815260200191505060206040518083038186803b1580156110b657600080fd5b505afa1580156110ca573d6000803e3d6000fd5b505050506040513d60208110156110e057600080fd5b5051905060006110ef826118da565b9050826001600160a01b031663b86e321c306040518263ffffffff1660e01b815260040180826001600160a01b03168152602001915050600060405180830381600087803b15801561114057600080fd5b505af1158015611154573d6000803e3d6000fd5b505050600991909155505050565b600061116c611553565b90506000816001600160a01b031663eae0171830600a60008154811061118e57fe5b60009182526020918290200154604080516001600160e01b031960e087901b1681526001600160a01b03948516600482015293909116602484015251604480840193829003018186803b1580156111e457600080fd5b505afa1580156111f8573d6000803e3d6000fd5b505050506040513d602081101561120e57600080fd5b50516001549091506103e89082020460005b600a5481101561126657600b8054600181810183556000929092527f0175b7a638427703f0dbe7bb9bbf987a2551717b34e79f33b5b1008d1fa01db90183905501611220565b50826001600160a01b031663d66ddda3600a600b6040518363ffffffff1660e01b815260040180806020018060200183810383528581815481526020019150805480156112dc57602002820191906000526020600020905b81546001600160a01b031681526001909101906020018083116112be575b5050838103825284818154815260200191508054801561131b57602002820191906000526020600020905b815481526020019060010190808311611307575b5050945050505050600060405180830381600087803b15801561133d57600080fd5b505af1158015611351573d6000803e3d6000fd5b50505050600b6000610dc39190611a29565b600c54604080516370a0823160e01b815230600482015290516000926001600160a01b0316916370a08231916024808301926020929190829003018186803b1580156113ae57600080fd5b505afa1580156113c2573d6000803e3d6000fd5b505050506040513d60208110156113d857600080fd5b5051600554600254919250600091611405916113fc916103e8916109219190611611565b60025490610f53565b90508181101561154f57600061141b8383610ee7565b90506000805b600a548110156114495781546001818101845560008481526020902090910184905501611421565b506000611454611553565b9050806001600160a01b031663c001472e84600a856040518463ffffffff1660e01b815260040180848152602001806020018060200183810383528581815481526020019150805480156114d157602002820191906000526020600020905b81546001600160a01b031681526001909101906020018083116114b3575b5050838103825284818154815260200191508054801561151057602002820191906000526020600020905b8154815260200190600101908083116114fc575b505095505050505050600060405180830381600087803b15801561153357600080fd5b505af1158015611547573d6000803e3d6000fd5b505050505050505b5050565b600e54604080516227050b60e31b815261505360f01b600482015290516000926001600160a01b0316916301382858916024808301926020929190829003018186803b158015610eb657600080fd5b60085460009062093a809082906115ba904290610ee7565b90508181106115cd57600954925061160c565b60006115e58261092185670de0b6b3a7640000611611565b905061160881610921670de0b6b3a764000060095461161190919063ffffffff16565b9350505b505090565b60008261162057506000610efb565b8282028284828161162d57fe5b0414610f6557600080fd5b600080821161164657600080fd5b600082848161165157fe5b04949350505050565b604080516001600160a01b0380861660248301528416604482015260648082018490528251808303909101815260849091019091526020810180516001600160e01b03166323b872dd60e01b1790526105ca908590611722565b6001600160a01b0381166116c757600080fd5b600080546040516001600160a01b03808516939216917f8be0079c531659141344cd1fd0a4f28419497f9722a3daafe3b4186f6b6457e091a3600080546001600160a01b0319166001600160a01b0392909216919091179055565b611734826001600160a01b031661198a565b611785576040805162461bcd60e51b815260206004820152601f60248201527f5361666545524332303a2063616c6c20746f206e6f6e2d636f6e747261637400604482015290519081900360640190fd5b60006060836001600160a01b0316836040518082805190602001908083835b602083106117c35780518252601f1990920191602091820191016117a4565b6001836020036101000a0380198251168184511680821785525050505050509050019150506000604051808303816000865af19150503d8060008114611825576040519150601f19603f3d011682016040523d82523d6000602084013e61182a565b606091505b509150915081611881576040805162461bcd60e51b815260206004820181905260248201527f5361666545524332303a206c6f772d6c6576656c2063616c6c206661696c6564604482015290519081900360640190fd5b8051156105ca5780806020019051602081101561189d57600080fd5b50516105ca5760405162461bcd60e51b815260040180806020018281038252602a815260200180611aaa602a913960400191505060405180910390fd5b6000806118f86103e86109216007548661161190919063ffffffff16565b600d54600654604080516340c10f1960e01b81526001600160a01b0392831660048201526024810185905290519394509116916340c10f19916044808201926020929091908290030181600087803b15801561195357600080fd5b505af1158015611967573d6000803e3d6000fd5b505050506040513d602081101561197d57600080fd5b50610f6590508382610ee7565b6000813f7fc5d2460186f7233c927e7db2dcc703c0e500b653ca82273b7bfad8045d85a47081158015906119be5750808214155b949350505050565b828054828255906000526020600020908101928215611a19579160200282015b82811115611a195781546001600160a01b0319166001600160a01b038435161782556020909201916001909101906119e6565b50611a25929150611a47565b5090565b5080546000825590600052602060002090810190610e649190611a66565b5b80821115611a255780546001600160a01b0319168155600101611a48565b5b80821115611a255760008155600101611a6756fe497420686173206e6f74206265656e203720646179732073696e636520746865206c6173742072657374616b652e5361666545524332303a204552433230206f7065726174696f6e20646964206e6f7420737563636565645769746864726177616c73206172652074656d706f726172696c79207061757365642e6d73672e73656e646572206973206e6f74206f776e6572000000000000000000a2646970667358221220c7beefc1f533f2e46eaca367dad2f7a6892e3c317f51fc241165971dcff9a53564736f6c634300060c0033",
  "linkReferences": {},
  "deployedLinkReferences": {}
}