{
  "_format": "hh-sol-artifact-1",
  "contractName": "arNXMVault",
  "sourceName": "contracts/core/arNXMVault.sol",
  "abi": [
    {
      "inputs": [
        {
          "internalType": "address[]",
          "name": "_protocols",
          "type": "address[]"
        },
        {
          "internalType": "address",
          "name": "_wNXM",
          "type": "address"
        },
        {
          "internalType": "address",
          "name": "_arNXM",
          "type": "address"
        },
        {
          "internalType": "address",
          "name": "_nxmMaster",
          "type": "address"
        }
      ],
      "stateMutability": "nonpayable",
      "type": "constructor"
    },
    {
      "anonymous": false,
      "inputs": [
        {
          "indexed": true,
          "internalType": "address",
          "name": "previousOwner",
          "type": "address"
        },
        {
          "indexed": true,
          "internalType": "address",
          "name": "newOwner",
          "type": "address"
        }
      ],
      "name": "OwnershipTransferred",
      "type": "event"
    },
    {
      "inputs": [],
      "name": "adminPercent",
      "outputs": [
        {
          "internalType": "uint256",
          "name": "",
          "type": "uint256"
        }
      ],
      "stateMutability": "view",
      "type": "function"
    },
    {
      "inputs": [],
      "name": "arNXM",
      "outputs": [
        {
          "internalType": "contract IERC20",
          "name": "",
          "type": "address"
        }
      ],
      "stateMutability": "view",
      "type": "function"
    },
    {
      "inputs": [
        {
          "internalType": "uint256",
          "name": "_wAmount",
          "type": "uint256"
        }
      ],
      "name": "arNXMValue",
      "outputs": [
        {
          "internalType": "uint256",
          "name": "arAmount",
          "type": "uint256"
        }
      ],
      "stateMutability": "view",
      "type": "function"
    },
    {
      "inputs": [],
      "name": "beneficiary",
      "outputs": [
        {
          "internalType": "address",
          "name": "",
          "type": "address"
        }
      ],
      "stateMutability": "view",
      "type": "function"
    },
    {
      "inputs": [],
      "name": "bufferPercent",
      "outputs": [
        {
          "internalType": "uint256",
          "name": "",
          "type": "uint256"
        }
      ],
      "stateMutability": "view",
      "type": "function"
    },
    {
      "inputs": [
        {
          "internalType": "uint256",
          "name": "_adminPercent",
          "type": "uint256"
        }
      ],
      "name": "changeAdminPercent",
      "outputs": [],
      "stateMutability": "nonpayable",
      "type": "function"
    },
    {
      "inputs": [
        {
          "internalType": "uint256",
          "name": "_bufferPercent",
          "type": "uint256"
        }
      ],
      "name": "changeBufferPercent",
      "outputs": [],
      "stateMutability": "nonpayable",
      "type": "function"
    },
    {
      "inputs": [
        {
          "internalType": "uint256",
          "name": "_pauseDuration",
          "type": "uint256"
        }
      ],
      "name": "changePauseDuration",
      "outputs": [],
      "stateMutability": "nonpayable",
      "type": "function"
    },
    {
      "inputs": [
        {
          "internalType": "address[]",
          "name": "_protocols",
          "type": "address[]"
        }
      ],
      "name": "changeProtocols",
      "outputs": [],
      "stateMutability": "nonpayable",
      "type": "function"
    },
    {
      "inputs": [
        {
          "internalType": "uint256",
          "name": "_unstakePercent",
          "type": "uint256"
        }
      ],
      "name": "changeUnstakePercent",
      "outputs": [],
      "stateMutability": "nonpayable",
      "type": "function"
    },
    {
      "inputs": [
        {
          "internalType": "uint256",
          "name": "_wAmount",
          "type": "uint256"
        }
      ],
      "name": "deposit",
      "outputs": [],
      "stateMutability": "nonpayable",
      "type": "function"
    },
    {
      "inputs": [],
      "name": "isOwner",
      "outputs": [
        {
          "internalType": "bool",
          "name": "",
          "type": "bool"
        }
      ],
      "stateMutability": "view",
      "type": "function"
    },
    {
      "inputs": [],
      "name": "lastRestake",
      "outputs": [
        {
          "internalType": "uint256",
          "name": "",
          "type": "uint256"
        }
      ],
      "stateMutability": "view",
      "type": "function"
    },
    {
      "inputs": [],
      "name": "lastReward",
      "outputs": [
        {
          "internalType": "uint256",
          "name": "",
          "type": "uint256"
        }
      ],
      "stateMutability": "view",
      "type": "function"
    },
    {
      "inputs": [],
      "name": "nxmMaster",
      "outputs": [
        {
          "internalType": "contract INXMMaster",
          "name": "",
          "type": "address"
        }
      ],
      "stateMutability": "view",
      "type": "function"
    },
    {
      "inputs": [],
      "name": "owner",
      "outputs": [
        {
          "internalType": "address",
          "name": "",
          "type": "address"
        }
      ],
      "stateMutability": "view",
      "type": "function"
    },
    {
      "inputs": [],
      "name": "pauseDuration",
      "outputs": [
        {
          "internalType": "uint256",
          "name": "",
          "type": "uint256"
        }
      ],
      "stateMutability": "view",
      "type": "function"
    },
    {
      "inputs": [
        {
          "internalType": "uint256",
          "name": "_claimId",
          "type": "uint256"
        }
      ],
      "name": "pauseWithdrawals",
      "outputs": [],
      "stateMutability": "nonpayable",
      "type": "function"
    },
    {
      "inputs": [
        {
          "internalType": "uint256",
          "name": "",
          "type": "uint256"
        }
      ],
      "name": "protocols",
      "outputs": [
        {
          "internalType": "address",
          "name": "",
          "type": "address"
        }
      ],
      "stateMutability": "view",
      "type": "function"
    },
    {
      "inputs": [],
      "name": "renounceOwnership",
      "outputs": [],
      "stateMutability": "nonpayable",
      "type": "function"
    },
    {
      "inputs": [],
      "name": "restake",
      "outputs": [],
      "stateMutability": "nonpayable",
      "type": "function"
    },
    {
      "inputs": [
        {
          "internalType": "address",
          "name": "newOwner",
          "type": "address"
        }
      ],
      "name": "transferOwnership",
      "outputs": [],
      "stateMutability": "nonpayable",
      "type": "function"
    },
    {
      "inputs": [],
      "name": "unstakePercent",
      "outputs": [
        {
          "internalType": "uint256",
          "name": "",
          "type": "uint256"
        }
      ],
      "stateMutability": "view",
      "type": "function"
    },
    {
      "inputs": [],
      "name": "wNXM",
      "outputs": [
        {
          "internalType": "contract IERC20",
          "name": "",
          "type": "address"
        }
      ],
      "stateMutability": "view",
      "type": "function"
    },
    {
      "inputs": [
        {
          "internalType": "uint256",
          "name": "_arAmount",
          "type": "uint256"
        }
      ],
      "name": "wNXMValue",
      "outputs": [
        {
          "internalType": "uint256",
          "name": "wAmount",
          "type": "uint256"
        }
      ],
      "stateMutability": "view",
      "type": "function"
    },
    {
      "inputs": [
        {
          "internalType": "uint256",
          "name": "_arAmount",
          "type": "uint256"
        }
      ],
      "name": "withdraw",
      "outputs": [],
      "stateMutability": "nonpayable",
      "type": "function"
    },
    {
      "inputs": [],
      "name": "withdrawals",
      "outputs": [
        {
          "internalType": "uint256",
          "name": "",
          "type": "uint256"
        }
      ],
      "stateMutability": "view",
      "type": "function"
    },
    {
      "inputs": [],
      "name": "withdrawalsPaused",
      "outputs": [
        {
          "internalType": "uint256",
          "name": "",
          "type": "uint256"
        }
      ],
      "stateMutability": "view",
      "type": "function"
    }
  ],
  "bytecode": "0x60806040523480156200001157600080fd5b5060405162002d1a38038062002d1a833981810160405260808110156200003757600080fd5b81019080805160405193929190846401000000008211156200005857600080fd5b838201915060208201858111156200006f57600080fd5b82518660208202830111640100000000821117156200008d57600080fd5b8083526020830192505050908051906020019060200280838360005b83811015620000c6578082015181840152602081019050620000a9565b50505050905001604052602001805190602001909291908051906020019092919080519060200190929190505050336000806101000a81548173ffffffffffffffffffffffffffffffffffffffff021916908373ffffffffffffffffffffffffffffffffffffffff16021790555060008054906101000a900473ffffffffffffffffffffffffffffffffffffffff1673ffffffffffffffffffffffffffffffffffffffff16600073ffffffffffffffffffffffffffffffffffffffff167f8be0079c531659141344cd1fd0a4f28419497f9722a3daafe3b4186f6b6457e060405160405180910390a360005b84518110156200024157600a858281518110620001cb57fe5b60200260200101519080600181540180825580915050600190039060005260206000200160009091909190916101000a81548173ffffffffffffffffffffffffffffffffffffffff021916908373ffffffffffffffffffffffffffffffffffffffff1602179055508080600101915050620001b2565b5082600c60006101000a81548173ffffffffffffffffffffffffffffffffffffffff021916908373ffffffffffffffffffffffffffffffffffffffff16021790555081600d60006101000a81548173ffffffffffffffffffffffffffffffffffffffff021916908373ffffffffffffffffffffffffffffffffffffffff16021790555080600e60006101000a81548173ffffffffffffffffffffffffffffffffffffffff021916908373ffffffffffffffffffffffffffffffffffffffff1602179055506101f4600581905550604660018190555060c860078190555062093a80600481905550505050506129de806200033c6000396000f3fe608060405234801561001057600080fd5b50600436106101c35760003560e01c80638da5cb5b116100f9578063c0dab51611610097578063e9f2838e11610071578063e9f2838e146105c2578063ea2fafcc146105e0578063ee0d1a3e14610659578063f2fde38b14610687576101c3565b8063c0dab51614610558578063c71859b814610576578063c9b17149146105a4576101c3565b806394ff2fa8116100d357806394ff2fa8146104aa5780639d37b8db146104de578063ade0e93e1461050c578063b6b55f251461052a576101c3565b80638da5cb5b146104145780638f32d59b146104485780639465cc1f14610468576101c3565b80634f91440d116101665780635fc987c1116101405780635fc987c11461034a5780636d29808e1461037e578063715018a6146103b25780638c396220146103bc576101c3565b80634f91440d146102e0578063550934d6146102ea5780635c5d44171461032c576101c3565b8063202a36cd116101a2578063202a36cd146102325780632e1a7d4d1461026057806330f6e4671461028e57806338af3eed146102ac576101c3565b80627a2232146101c85780630526679c146101f65780631c01e6fc14610214575b600080fd5b6101f4600480360360208110156101de57600080fd5b81019080803590602001909291905050506106cb565b005b6101fe61075d565b6040518082815260200191505060405180910390f35b61021c610763565b6040518082815260200191505060405180910390f35b61025e6004803603602081101561024857600080fd5b8101908080359060200190929190505050610769565b005b61028c6004803603602081101561027657600080fd5b81019080803590602001909291905050506108d7565b005b610296610a8d565b6040518082815260200191505060405180910390f35b6102b4610a93565b604051808273ffffffffffffffffffffffffffffffffffffffff16815260200191505060405180910390f35b6102e8610ab9565b005b6103166004803603602081101561030057600080fd5b8101908080359060200190929190505050610b5a565b6040518082815260200191505060405180910390f35b610334610e1d565b6040518082815260200191505060405180910390f35b610352610e23565b604051808273ffffffffffffffffffffffffffffffffffffffff16815260200191505060405180910390f35b610386610e49565b604051808273ffffffffffffffffffffffffffffffffffffffff16815260200191505060405180910390f35b6103ba610e6f565b005b6103e8600480360360208110156103d257600080fd5b8101908080359060200190929190505050610fa7565b604051808273ffffffffffffffffffffffffffffffffffffffff16815260200191505060405180910390f35b61041c610fe3565b604051808273ffffffffffffffffffffffffffffffffffffffff16815260200191505060405180910390f35b61045061100c565b60405180821515815260200191505060405180910390f35b6104946004803603602081101561047e57600080fd5b8101908080359060200190929190505050611063565b6040518082815260200191505060405180910390f35b6104b2611326565b604051808273ffffffffffffffffffffffffffffffffffffffff16815260200191505060405180910390f35b61050a600480360360208110156104f457600080fd5b810190808035906020019092919050505061134c565b005b6105146113d0565b6040518082815260200191505060405180910390f35b6105566004803603602081101561054057600080fd5b81019080803590602001909291905050506113d6565b005b610560611505565b6040518082815260200191505060405180910390f35b6105a26004803603602081101561058c57600080fd5b810190808035906020019092919050505061150b565b005b6105ac61159e565b6040518082815260200191505060405180910390f35b6105ca6115a4565b6040518082815260200191505060405180910390f35b610657600480360360208110156105f657600080fd5b810190808035906020019064010000000081111561061357600080fd5b82018360208201111561062557600080fd5b8035906020019184602083028401116401000000008311171561064757600080fd5b90919293919293905050506115aa565b005b6106856004803603602081101561066f57600080fd5b810190808035906020019092919050505061163a565b005b6106c96004803603602081101561069d57600080fd5b81019080803573ffffffffffffffffffffffffffffffffffffffff1690602001909291905050506116be565b005b6106d361100c565b610745576040517f08c379a00000000000000000000000000000000000000000000000000000000081526004018080602001828103825260178152602001807f6d73672e73656e646572206973206e6f74206f776e657200000000000000000081525060200191505060405180910390fd5b606481111561075357600080fd5b8060018190555050565b60045481565b60085481565b6000610773611744565b905060008173ffffffffffffffffffffffffffffffffffffffff166336dbd2f9846040518263ffffffff1660e01b815260040180828152602001915050604080518083038186803b1580156107c757600080fd5b505afa1580156107db573d6000803e3d6000fd5b505050506040513d60408110156107f157600080fd5b81019080805190602001909291908051906020019092919050505091505060008273ffffffffffffffffffffffffffffffffffffffff166354d0f8d8856040518263ffffffff1660e01b81526004018082815260200191505060206040518083038186803b15801561086257600080fd5b505afa158015610876573d6000803e3d6000fd5b505050506040513d602081101561088c57600080fd5b81019080805190602001909291905050509050600e821480156108c4575062093a806108c1824261181990919063ffffffff16565b11155b156108d157426003819055505b50505050565b6004546108ef6003544261181990919063ffffffff16565b11610945576040517f08c379a00000000000000000000000000000000000000000000000000000000081526004018080602001828103825260238152602001806129866023913960400191505060405180910390fd5b600061095082610b5a565b9050600d60009054906101000a900473ffffffffffffffffffffffffffffffffffffffff1673ffffffffffffffffffffffffffffffffffffffff16639dc29fac33846040518363ffffffff1660e01b8152600401808373ffffffffffffffffffffffffffffffffffffffff16815260200182815260200192505050602060405180830381600087803b1580156109e557600080fd5b505af11580156109f9573d6000803e3d6000fd5b505050506040513d6020811015610a0f57600080fd5b810190808051906020019092919050505050610a6e3382600c60009054906101000a900473ffffffffffffffffffffffffffffffffffffffff1673ffffffffffffffffffffffffffffffffffffffff166118399092919063ffffffff16565b610a83816002546118db90919063ffffffff16565b6002819055505050565b60015481565b600660009054906101000a900473ffffffffffffffffffffffffffffffffffffffff1681565b42610ad262093a806008546118db90919063ffffffff16565b1115610b29576040517f08c379a000000000000000000000000000000000000000000000000000000000815260040180806020018281038252602e81526020018061292e602e913960400191505060405180910390fd5b610b316118fa565b610b39611a1b565b610b41611b67565b610b49611e04565b426008819055506000600281905550565b600080610b656120bb565b90506000600c60009054906101000a900473ffffffffffffffffffffffffffffffffffffffff1673ffffffffffffffffffffffffffffffffffffffff166370a08231306040518263ffffffff1660e01b8152600401808273ffffffffffffffffffffffffffffffffffffffff16815260200191505060206040518083038186803b158015610bf257600080fd5b505afa158015610c06573d6000803e3d6000fd5b505050506040513d6020811015610c1c57600080fd5b8101908080519060200190929190505050905060008273ffffffffffffffffffffffffffffffffffffffff166339ac5eb9306040518263ffffffff1660e01b8152600401808273ffffffffffffffffffffffffffffffffffffffff16815260200191505060206040518083038186803b158015610c9857600080fd5b505afa158015610cac573d6000803e3d6000fd5b505050506040513d6020811015610cc257600080fd5b810190808051906020019092919050505090506000610cdf612190565b90506000610d0882610cfa85876118db90919063ffffffff16565b6118db90919063ffffffff16565b90506000600d60009054906101000a900473ffffffffffffffffffffffffffffffffffffffff1673ffffffffffffffffffffffffffffffffffffffff166318160ddd6040518163ffffffff1660e01b815260040160206040518083038186803b158015610d7457600080fd5b505afa158015610d88573d6000803e3d6000fd5b505050506040513d6020811015610d9e57600080fd5b810190808051906020019092919050505090506000610de082610dd2670de0b6b3a76400008661222c90919063ffffffff16565b61226690919063ffffffff16565b9050610e0f670de0b6b3a7640000610e01838c61222c90919063ffffffff16565b61226690919063ffffffff16565b975050505050505050919050565b60055481565b600e60009054906101000a900473ffffffffffffffffffffffffffffffffffffffff1681565b600d60009054906101000a900473ffffffffffffffffffffffffffffffffffffffff1681565b610e7761100c565b610ee9576040517f08c379a00000000000000000000000000000000000000000000000000000000081526004018080602001828103825260178152602001807f6d73672e73656e646572206973206e6f74206f776e657200000000000000000081525060200191505060405180910390fd5b600073ffffffffffffffffffffffffffffffffffffffff1660008054906101000a900473ffffffffffffffffffffffffffffffffffffffff1673ffffffffffffffffffffffffffffffffffffffff167f8be0079c531659141344cd1fd0a4f28419497f9722a3daafe3b4186f6b6457e060405160405180910390a360008060006101000a81548173ffffffffffffffffffffffffffffffffffffffff021916908373ffffffffffffffffffffffffffffffffffffffff160217905550565b600a8181548110610fb457fe5b906000526020600020016000915054906101000a900473ffffffffffffffffffffffffffffffffffffffff1681565b60008060009054906101000a900473ffffffffffffffffffffffffffffffffffffffff16905090565b60008060009054906101000a900473ffffffffffffffffffffffffffffffffffffffff1673ffffffffffffffffffffffffffffffffffffffff163373ffffffffffffffffffffffffffffffffffffffff1614905090565b60008061106e6120bb565b90506000600c60009054906101000a900473ffffffffffffffffffffffffffffffffffffffff1673ffffffffffffffffffffffffffffffffffffffff166370a08231306040518263ffffffff1660e01b8152600401808273ffffffffffffffffffffffffffffffffffffffff16815260200191505060206040518083038186803b1580156110fb57600080fd5b505afa15801561110f573d6000803e3d6000fd5b505050506040513d602081101561112557600080fd5b8101908080519060200190929190505050905060008273ffffffffffffffffffffffffffffffffffffffff166339ac5eb9306040518263ffffffff1660e01b8152600401808273ffffffffffffffffffffffffffffffffffffffff16815260200191505060206040518083038186803b1580156111a157600080fd5b505afa1580156111b5573d6000803e3d6000fd5b505050506040513d60208110156111cb57600080fd5b8101908080519060200190929190505050905060006111e8612190565b905060006112118261120385876118db90919063ffffffff16565b6118db90919063ffffffff16565b90506000600d60009054906101000a900473ffffffffffffffffffffffffffffffffffffffff1673ffffffffffffffffffffffffffffffffffffffff166318160ddd6040518163ffffffff1660e01b815260040160206040518083038186803b15801561127d57600080fd5b505afa158015611291573d6000803e3d6000fd5b505050506040513d60208110156112a757600080fd5b8101908080519060200190929190505050905060006112e9836112db670de0b6b3a76400008561222c90919063ffffffff16565b61226690919063ffffffff16565b9050611318670de0b6b3a764000061130a838c61222c90919063ffffffff16565b61226690919063ffffffff16565b975050505050505050919050565b600c60009054906101000a900473ffffffffffffffffffffffffffffffffffffffff1681565b61135461100c565b6113c6576040517f08c379a00000000000000000000000000000000000000000000000000000000081526004018080602001828103825260178152602001807f6d73672e73656e646572206973206e6f74206f776e657200000000000000000081525060200191505060405180910390fd5b8060048190555050565b60025481565b60006113e182611063565b9050611432333084600c60009054906101000a900473ffffffffffffffffffffffffffffffffffffffff1673ffffffffffffffffffffffffffffffffffffffff1661228c909392919063ffffffff16565b600d60009054906101000a900473ffffffffffffffffffffffffffffffffffffffff1673ffffffffffffffffffffffffffffffffffffffff166340c10f1933836040518363ffffffff1660e01b8152600401808373ffffffffffffffffffffffffffffffffffffffff16815260200182815260200192505050602060405180830381600087803b1580156114c557600080fd5b505af11580156114d9573d6000803e3d6000fd5b505050506040513d60208110156114ef57600080fd5b8101908080519060200190929190505050505050565b60075481565b61151361100c565b611585576040517f08c379a00000000000000000000000000000000000000000000000000000000081526004018080602001828103825260178152602001807f6d73672e73656e646572206973206e6f74206f776e657200000000000000000081525060200191505060405180910390fd5b6103e881111561159457600080fd5b8060078190555050565b60095481565b60035481565b6115b261100c565b611624576040517f08c379a00000000000000000000000000000000000000000000000000000000081526004018080602001828103825260178152602001807f6d73672e73656e646572206973206e6f74206f776e657200000000000000000081525060200191505060405180910390fd5b8181600a9190611635929190612814565b505050565b61164261100c565b6116b4576040517f08c379a00000000000000000000000000000000000000000000000000000000081526004018080602001828103825260178152602001807f6d73672e73656e646572206973206e6f74206f776e657200000000000000000081525060200191505060405180910390fd5b8060058190555050565b6116c661100c565b611738576040517f08c379a00000000000000000000000000000000000000000000000000000000081526004018080602001828103825260178152602001807f6d73672e73656e646572206973206e6f74206f776e657200000000000000000081525060200191505060405180910390fd5b6117418161234d565b50565b6000600e60009054906101000a900473ffffffffffffffffffffffffffffffffffffffff1673ffffffffffffffffffffffffffffffffffffffff1663013828586040518163ffffffff1660e01b815260040180807f4344000000000000000000000000000000000000000000000000000000000000815250602001905060206040518083038186803b1580156117d957600080fd5b505afa1580156117ed573d6000803e3d6000fd5b505050506040513d602081101561180357600080fd5b8101908080519060200190929190505050905090565b60008282111561182857600080fd5b600082840390508091505092915050565b6118d68363a9059cbb60e01b8484604051602401808373ffffffffffffffffffffffffffffffffffffffff16815260200182815260200192505050604051602081830303815290604052907bffffffffffffffffffffffffffffffffffffffffffffffffffffffff19166020820180517bffffffffffffffffffffffffffffffffffffffffffffffffffffffff8381831617835250505050612444565b505050565b6000808284019050838110156118f057600080fd5b8091505092915050565b60006119046120bb565b905060008173ffffffffffffffffffffffffffffffffffffffff1663afd369fd306040518263ffffffff1660e01b8152600401808273ffffffffffffffffffffffffffffffffffffffff16815260200191505060206040518083038186803b15801561196f57600080fd5b505afa158015611983573d6000803e3d6000fd5b505050506040513d602081101561199957600080fd5b810190808051906020019092919050505090508173ffffffffffffffffffffffffffffffffffffffff16632e1a7d4d826040518263ffffffff1660e01b815260040180828152602001915050600060405180830381600087803b1580156119ff57600080fd5b505af1158015611a13573d6000803e3d6000fd5b505050505050565b6000611a256120bb565b905060008173ffffffffffffffffffffffffffffffffffffffff16630ea474c7306040518263ffffffff1660e01b8152600401808273ffffffffffffffffffffffffffffffffffffffff16815260200191505060206040518083038186803b158015611a9057600080fd5b505afa158015611aa4573d6000803e3d6000fd5b505050506040513d6020811015611aba57600080fd5b810190808051906020019092919050505090506000611ad88261268f565b90508273ffffffffffffffffffffffffffffffffffffffff1663b86e321c306040518263ffffffff1660e01b8152600401808273ffffffffffffffffffffffffffffffffffffffff168152602001915050600060405180830381600087803b158015611b4357600080fd5b505af1158015611b57573d6000803e3d6000fd5b5050505080600981905550505050565b6000611b716120bb565b905060008173ffffffffffffffffffffffffffffffffffffffff1663eae0171830600a600081548110611ba057fe5b9060005260206000200160009054906101000a900473ffffffffffffffffffffffffffffffffffffffff166040518363ffffffff1660e01b8152600401808373ffffffffffffffffffffffffffffffffffffffff1681526020018273ffffffffffffffffffffffffffffffffffffffff1681526020019250505060206040518083038186803b158015611c3257600080fd5b505afa158015611c46573d6000803e3d6000fd5b505050506040513d6020811015611c5c57600080fd5b8101908080519060200190929190505050905060006103e8600154830281611c8057fe5b04905060005b600a80549050811015611cc957600b8290806001815401808255809150506001900390600052602060002001600090919091909150558080600101915050611c86565b508273ffffffffffffffffffffffffffffffffffffffff1663d66ddda3600a600b6040518363ffffffff1660e01b81526004018080602001806020018381038352858181548152602001915080548015611d7857602002820191906000526020600020905b8160009054906101000a900473ffffffffffffffffffffffffffffffffffffffff1673ffffffffffffffffffffffffffffffffffffffff1681526020019060010190808311611d2e575b50508381038252848181548152602001915080548015611db757602002820191906000526020600020905b815481526020019060010190808311611da3575b5050945050505050600060405180830381600087803b158015611dd957600080fd5b505af1158015611ded573d6000803e3d6000fd5b50505050600b6000611dff91906128b4565b505050565b6000600c60009054906101000a900473ffffffffffffffffffffffffffffffffffffffff1673ffffffffffffffffffffffffffffffffffffffff166370a08231306040518263ffffffff1660e01b8152600401808273ffffffffffffffffffffffffffffffffffffffff16815260200191505060206040518083038186803b158015611e8f57600080fd5b505afa158015611ea3573d6000803e3d6000fd5b505050506040513d6020811015611eb957600080fd5b810190808051906020019092919050505090506000611f0d611efc6103e8611eee60055460025461222c90919063ffffffff16565b61226690919063ffffffff16565b6002546118db90919063ffffffff16565b9050818110156120b7576000611f2c828461181990919063ffffffff16565b9050600080600090505b600a80549050811015611f7857818390806001815401808255809150506001900390600052602060002001600090919091909150558080600101915050611f36565b506000611f836120bb565b90508073ffffffffffffffffffffffffffffffffffffffff1663c001472e84600a856040518463ffffffff1660e01b8152600401808481526020018060200180602001838103835285818154815260200191508054801561203957602002820191906000526020600020905b8160009054906101000a900473ffffffffffffffffffffffffffffffffffffffff1673ffffffffffffffffffffffffffffffffffffffff1681526020019060010190808311611fef575b5050838103825284818154815260200191508054801561207857602002820191906000526020600020905b815481526020019060010190808311612064575b505095505050505050600060405180830381600087803b15801561209b57600080fd5b505af11580156120af573d6000803e3d6000fd5b505050505050505b5050565b6000600e60009054906101000a900473ffffffffffffffffffffffffffffffffffffffff1673ffffffffffffffffffffffffffffffffffffffff1663013828586040518163ffffffff1660e01b815260040180807f5053000000000000000000000000000000000000000000000000000000000000815250602001905060206040518083038186803b15801561215057600080fd5b505afa158015612164573d6000803e3d6000fd5b505050506040513d602081101561217a57600080fd5b8101908080519060200190929190505050905090565b60008062093a80905060006121b06008544261181990919063ffffffff16565b90508181106121c3576009549250612227565b60006121f2826121e4670de0b6b3a76400008661222c90919063ffffffff16565b61226690919063ffffffff16565b905061222381612215670de0b6b3a764000060095461222c90919063ffffffff16565b61226690919063ffffffff16565b9350505b505090565b60008083141561223f5760009050612260565b600082840290508284828161225057fe5b041461225b57600080fd5b809150505b92915050565b600080821161227457600080fd5b600082848161227f57fe5b0490508091505092915050565b612347846323b872dd60e01b858585604051602401808473ffffffffffffffffffffffffffffffffffffffff1681526020018373ffffffffffffffffffffffffffffffffffffffff1681526020018281526020019350505050604051602081830303815290604052907bffffffffffffffffffffffffffffffffffffffffffffffffffffffff19166020820180517bffffffffffffffffffffffffffffffffffffffffffffffffffffffff8381831617835250505050612444565b50505050565b600073ffffffffffffffffffffffffffffffffffffffff168173ffffffffffffffffffffffffffffffffffffffff16141561238757600080fd5b8073ffffffffffffffffffffffffffffffffffffffff1660008054906101000a900473ffffffffffffffffffffffffffffffffffffffff1673ffffffffffffffffffffffffffffffffffffffff167f8be0079c531659141344cd1fd0a4f28419497f9722a3daafe3b4186f6b6457e060405160405180910390a3806000806101000a81548173ffffffffffffffffffffffffffffffffffffffff021916908373ffffffffffffffffffffffffffffffffffffffff16021790555050565b6124638273ffffffffffffffffffffffffffffffffffffffff166127c9565b6124d5576040517f08c379a000000000000000000000000000000000000000000000000000000000815260040180806020018281038252601f8152602001807f5361666545524332303a2063616c6c20746f206e6f6e2d636f6e74726163740081525060200191505060405180910390fd5b600060608373ffffffffffffffffffffffffffffffffffffffff16836040518082805190602001908083835b602083106125245780518252602082019150602081019050602083039250612501565b6001836020036101000a0380198251168184511680821785525050505050509050019150506000604051808303816000865af19150503d8060008114612586576040519150601f19603f3d011682016040523d82523d6000602084013e61258b565b606091505b509150915081612603576040517f08c379a00000000000000000000000000000000000000000000000000000000081526004018080602001828103825260208152602001807f5361666545524332303a206c6f772d6c6576656c2063616c6c206661696c656481525060200191505060405180910390fd5b6000815111156126895780806020019051602081101561262257600080fd5b8101908080519060200190929190505050612688576040517f08c379a000000000000000000000000000000000000000000000000000000000815260040180806020018281038252602a81526020018061295c602a913960400191505060405180910390fd5b5b50505050565b6000806126bb6103e86126ad6007548661222c90919063ffffffff16565b61226690919063ffffffff16565b9050600d60009054906101000a900473ffffffffffffffffffffffffffffffffffffffff1673ffffffffffffffffffffffffffffffffffffffff166340c10f19600660009054906101000a900473ffffffffffffffffffffffffffffffffffffffff16836040518363ffffffff1660e01b8152600401808373ffffffffffffffffffffffffffffffffffffffff16815260200182815260200192505050602060405180830381600087803b15801561277257600080fd5b505af1158015612786573d6000803e3d6000fd5b505050506040513d602081101561279c57600080fd5b8101908080519060200190929190505050506127c1818461181990919063ffffffff16565b915050919050565b60008060007fc5d2460186f7233c927e7db2dcc703c0e500b653ca82273b7bfad8045d85a47060001b9050833f91506000801b821415801561280b5750808214155b92505050919050565b8280548282559060005260206000209081019282156128a3579160200282015b828111156128a257823573ffffffffffffffffffffffffffffffffffffffff168260006101000a81548173ffffffffffffffffffffffffffffffffffffffff021916908373ffffffffffffffffffffffffffffffffffffffff16021790555091602001919060010190612834565b5b5090506128b091906128d5565b5090565b50805460008255906000526020600020908101906128d29190612910565b50565b5b8082111561290c57600081816101000a81549073ffffffffffffffffffffffffffffffffffffffff0219169055506001016128d6565b5090565b5b80821115612929576000816000905550600101612911565b509056fe497420686173206e6f74206265656e203720646179732073696e636520746865206c6173742072657374616b652e5361666545524332303a204552433230206f7065726174696f6e20646964206e6f7420737563636565645769746864726177616c73206172652074656d706f726172696c79207061757365642ea264697066735822122074ad663a89d65c39ff56a930a7da45d8fa5bad54b849e309c0dc64760cc142e264736f6c634300060c0033",
  "linkReferences": {},
  "deployedLinkReferences": {}
}